{
  "address": "0x6a42Ec84e3E5adBDdB3236D83059A7b9BFc7DD5d",
  "bytecode": "0x608060405234801561001057600080fd5b5061128b806100206000396000f3fe60806040526004361061004a5760003560e01c806328bca1da1461004f578063506bc9381461006b5780637249fbb6146100ac578063bd66528a146100d5578063e957dd95146100fe575b600080fd5b61006960048036038101906100649190610c94565b610127565b005b34801561007757600080fd5b50610092600480360381019061008d9190610cfb565b6103aa565b6040516100a3959493929190610d55565b60405180910390f35b3480156100b857600080fd5b506100d360048036038101906100ce9190610cfb565b610434565b005b3480156100e157600080fd5b506100fc60048036038101906100f79190610cfb565b610624565b005b34801561010a57600080fd5b5061012560048036038101906101209190610da8565b610930565b005b600073ffffffffffffffffffffffffffffffffffffffff1660008085815260200190815260200160002060000160009054906101000a900473ffffffffffffffffffffffffffffffffffffffff1673ffffffffffffffffffffffffffffffffffffffff16146101cb576040517f08c379a00000000000000000000000000000000000000000000000000000000081526004016101c290610e45565b60405180910390fd5b6000341161020e576040517f08c379a000000000000000000000000000000000000000000000000000000000815260040161020590610eb1565b60405180910390fd5b3360008085815260200190815260200160002060000160006101000a81548173ffffffffffffffffffffffffffffffffffffffff021916908373ffffffffffffffffffffffffffffffffffffffff1602179055508060008085815260200190815260200160002060010160006101000a81548173ffffffffffffffffffffffffffffffffffffffff021916908373ffffffffffffffffffffffffffffffffffffffff1602179055508367ffffffffffffffff16426102cc9190610f00565b60008085815260200190815260200160002060000160146101000a81548167ffffffffffffffff021916908367ffffffffffffffff16021790555034600080858152602001908152602001600020600201819055508160008085815260200190815260200160002060030181905550827fd18311cf2af46f467a5099c8e01493def3a4b96b4af2bd081c3a9071b125ab87338334866000808a815260200190815260200160002060000160149054906101000a900467ffffffffffffffff1660405161039c959493929190610fd6565b60405180910390a250505050565b60006020528060005260406000206000915090508060000160009054906101000a900473ffffffffffffffffffffffffffffffffffffffff16908060000160149054906101000a900467ffffffffffffffff16908060010160009054906101000a900473ffffffffffffffffffffffffffffffffffffffff16908060020154908060030154905085565b600073ffffffffffffffffffffffffffffffffffffffff1660008083815260200190815260200160002060000160009054906101000a900473ffffffffffffffffffffffffffffffffffffffff1673ffffffffffffffffffffffffffffffffffffffff1614156104d9576040517f08c379a00000000000000000000000000000000000000000000000000000000081526004016104d090611075565b60405180910390fd5b4260008083815260200190815260200160002060000160149054906101000a900467ffffffffffffffff1667ffffffffffffffff161061054e576040517f08c379a0000000000000000000000000000000000000000000000000000000008152600401610545906110e1565b60405180910390fd5b6000806000838152602001908152602001600020600201549050600080600084815260200190815260200160002060000160009054906101000a900473ffffffffffffffffffffffffffffffffffffffff1690506105ab83610a64565b8073ffffffffffffffffffffffffffffffffffffffff166108fc839081150290604051600060405180830381858888f193505050501580156105f1573d6000803e3d6000fd5b50827f89a3812e9a08d15eef05de9d5e9acf435199100229446c26027d34434ddf26cf60405160405180910390a2505050565b6000816040516020016106379190611110565b604051602081830303815290604052805190602001209050600073ffffffffffffffffffffffffffffffffffffffff1660008083815260200190815260200160002060000160009054906101000a900473ffffffffffffffffffffffffffffffffffffffff1673ffffffffffffffffffffffffffffffffffffffff1614156106f4576040517f08c379a00000000000000000000000000000000000000000000000000000000081526004016106eb90611075565b60405180910390fd5b4260008083815260200190815260200160002060000160149054906101000a900467ffffffffffffffff1667ffffffffffffffff16101561076a576040517f08c379a0000000000000000000000000000000000000000000000000000000008152600401610761906110e1565b60405180910390fd5b600073ffffffffffffffffffffffffffffffffffffffff1660008083815260200190815260200160002060010160009054906101000a900473ffffffffffffffffffffffffffffffffffffffff1673ffffffffffffffffffffffffffffffffffffffff16141561080f576040517f08c379a000000000000000000000000000000000000000000000000000000000815260040161080690611177565b60405180910390fd5b600080600083815260200190815260200160002060000160009054906101000a900473ffffffffffffffffffffffffffffffffffffffff1690506000806000848152602001908152602001600020600201549050600080600085815260200190815260200160002060010160009054906101000a900473ffffffffffffffffffffffffffffffffffffffff1690506108a684610a64565b8073ffffffffffffffffffffffffffffffffffffffff166108fc839081150290604051600060405180830381858888f193505050501580156108ec573d6000803e3d6000fd5b50837fecccc8c164be42fbccbda753bd1743914dc535d03c7847078e490db346236e7f82848660405161092193929190611197565b60405180910390a25050505050565b600073ffffffffffffffffffffffffffffffffffffffff1660008084815260200190815260200160002060010160009054906101000a900473ffffffffffffffffffffffffffffffffffffffff1673ffffffffffffffffffffffffffffffffffffffff16146109d4576040517f08c379a00000000000000000000000000000000000000000000000000000000081526004016109cb9061121a565b60405180910390fd5b8060008084815260200190815260200160002060010160006101000a81548173ffffffffffffffffffffffffffffffffffffffff021916908373ffffffffffffffffffffffffffffffffffffffff160217905550817f447fa89cb40c25c3a0eaa00590cff4d331c31110d1abaec31308b0a78b659d7682604051610a58919061123a565b60405180910390a25050565b600080600083815260200190815260200160002090508060000160006101000a81549073ffffffffffffffffffffffffffffffffffffffff02191690558060010160006101000a81549073ffffffffffffffffffffffffffffffffffffffff02191690558060000160146101000a81549067ffffffffffffffff021916905580600201600090558060030160009055600080838152602001908152602001600020600080820160006101000a81549073ffffffffffffffffffffffffffffffffffffffff02191690556000820160146101000a81549067ffffffffffffffff02191690556001820160006101000a81549073ffffffffffffffffffffffffffffffffffffffff02191690556002820160009055600382016000905550505050565b600080fd5b600067ffffffffffffffff82169050919050565b610ba781610b8a565b8114610bb257600080fd5b50565b600081359050610bc481610b9e565b92915050565b6000819050919050565b610bdd81610bca565b8114610be857600080fd5b50565b600081359050610bfa81610bd4565b92915050565b6000819050919050565b610c1381610c00565b8114610c1e57600080fd5b50565b600081359050610c3081610c0a565b92915050565b600073ffffffffffffffffffffffffffffffffffffffff82169050919050565b6000610c6182610c36565b9050919050565b610c7181610c56565b8114610c7c57600080fd5b50565b600081359050610c8e81610c68565b92915050565b60008060008060808587031215610cae57610cad610b85565b5b6000610cbc87828801610bb5565b9450506020610ccd87828801610beb565b9350506040610cde87828801610c21565b9250506060610cef87828801610c7f565b91505092959194509250565b600060208284031215610d1157610d10610b85565b5b6000610d1f84828501610beb565b91505092915050565b610d3181610c56565b82525050565b610d4081610b8a565b82525050565b610d4f81610c00565b82525050565b600060a082019050610d6a6000830188610d28565b610d776020830187610d37565b610d846040830186610d28565b610d916060830185610d46565b610d9e6080830184610d46565b9695505050505050565b60008060408385031215610dbf57610dbe610b85565b5b6000610dcd85828601610beb565b9250506020610dde85828601610c7f565b9150509250929050565b600082825260208201905092915050565b7f456e74727920616c726561647920657869737473000000000000000000000000600082015250565b6000610e2f601483610de8565b9150610e3a82610df9565b602082019050919050565b60006020820190508181036000830152610e5e81610e22565b9050919050565b7f4574686572206973207265717569726564000000000000000000000000000000600082015250565b6000610e9b601183610de8565b9150610ea682610e65565b602082019050919050565b60006020820190508181036000830152610eca81610e8e565b9050919050565b7f4e487b7100000000000000000000000000000000000000000000000000000000600052601160045260246000fd5b6000610f0b82610c00565b9150610f1683610c00565b9250827fffffffffffffffffffffffffffffffffffffffffffffffffffffffffffffffff03821115610f4b57610f4a610ed1565b5b828201905092915050565b6000610f6182610c36565b9050919050565b610f7181610f56565b82525050565b6000819050919050565b6000610f9c610f97610f9284610c36565b610f77565b610c36565b9050919050565b6000610fae82610f81565b9050919050565b6000610fc082610fa3565b9050919050565b610fd081610fb5565b82525050565b600060a082019050610feb6000830188610f68565b610ff86020830187610fc7565b6110056040830186610d46565b6110126060830185610d46565b61101f6080830184610d37565b9695505050505050565b7f4e6f20656e74727920666f756e64000000000000000000000000000000000000600082015250565b600061105f600e83610de8565b915061106a82611029565b602082019050919050565b6000602082019050818103600083015261108e81611052565b9050919050565b7f54696d655374616d702076696f6c6174696f6e00000000000000000000000000600082015250565b60006110cb601383610de8565b91506110d682611095565b602082019050919050565b600060208201905081810360008301526110fa816110be565b9050919050565b61110a81610bca565b82525050565b60006020820190506111256000830184611101565b92915050565b7f54686520656e74727920686173206e6f20726563697069656e74000000000000600082015250565b6000611161601a83610de8565b915061116c8261112b565b602082019050919050565b6000602082019050818103600083015261119081611154565b9050919050565b60006060820190506111ac6000830186610fc7565b6111b96020830185610d46565b6111c66040830184610f68565b949350505050565b7f526563697069656e7420616c7265616479206164646564000000000000000000600082015250565b6000611204601783610de8565b915061120f826111ce565b602082019050919050565b60006020820190508181036000830152611233816111f7565b9050919050565b600060208201905061124f6000830184610fc7565b9291505056fea26469706673582212203d34c3ed3caec60a85361e9e68dcec77179bf64aa78ba7455761dd26e603ebd064736f6c63430008090033",
  "abi": [
    {
      "anonymous": false,
      "inputs": [
        {
          "indexed": true,
          "internalType": "bytes32",
          "name": "hashedSecret",
          "type": "bytes32"
        },
        {
          "indexed": false,
          "internalType": "address",
          "name": "initiator",
          "type": "address"
        },
        {
          "indexed": false,
          "internalType": "address",
          "name": "recipient",
          "type": "address"
        },
        {
          "indexed": false,
          "internalType": "uint256",
          "name": "value",
          "type": "uint256"
        },
        {
          "indexed": false,
          "internalType": "uint256",
          "name": "expectedAmount",
          "type": "uint256"
        },
        {
          "indexed": false,
          "internalType": "uint64",
          "name": "endTimeStamp",
          "type": "uint64"
        }
      ],
      "name": "SwapInitiatedEvent",
      "type": "event"
    },
    {
      "anonymous": false,
      "inputs": [
        {
          "indexed": true,
          "internalType": "bytes32",
          "name": "hashedSecret",
          "type": "bytes32"
        },
        {
          "indexed": false,
          "internalType": "address",
          "name": "recipient",
          "type": "address"
        }
      ],
      "name": "SwapRecipientAddedEvent",
      "type": "event"
    },
    {
      "anonymous": false,
      "inputs": [
        {
          "indexed": true,
          "internalType": "bytes32",
          "name": "hashedSecret",
          "type": "bytes32"
        }
      ],
      "name": "SwapRefundedEvent",
      "type": "event"
    },
    {
      "anonymous": false,
      "inputs": [
        {
          "indexed": true,
          "internalType": "bytes32",
          "name": "hashedSecret",
          "type": "bytes32"
        },
        {
          "indexed": false,
          "internalType": "address",
          "name": "recipient",
          "type": "address"
        },
        {
          "indexed": false,
          "internalType": "uint256",
          "name": "value",
          "type": "uint256"
        },
        {
          "indexed": false,
          "internalType": "address",
          "name": "initiator",
          "type": "address"
        }
      ],
      "name": "SwapSuccessEvent",
      "type": "event"
    },
    {
      "inputs": [
        {
          "internalType": "bytes32",
          "name": "_hashedSecret",
          "type": "bytes32"
        },
        {
          "internalType": "address payable",
          "name": "_recipient",
          "type": "address"
        }
      ],
      "name": "addRecipient",
      "outputs": [],
      "stateMutability": "nonpayable",
      "type": "function"
    },
    {
      "inputs": [
        {
          "internalType": "bytes32",
          "name": "_proof",
          "type": "bytes32"
        }
      ],
      "name": "claim",
      "outputs": [],
      "stateMutability": "nonpayable",
      "type": "function"
    },
    {
      "inputs": [
        {
          "internalType": "uint64",
          "name": "_lockTimeSec",
          "type": "uint64"
        },
        {
          "internalType": "bytes32",
          "name": "_hashedSecret",
          "type": "bytes32"
        },
        {
          "internalType": "uint256",
          "name": "expectedAmount",
          "type": "uint256"
        },
        {
          "internalType": "address payable",
          "name": "_recipient",
          "type": "address"
        }
      ],
      "name": "commit",
      "outputs": [],
      "stateMutability": "payable",
      "type": "function"
    },
    {
      "inputs": [
        {
          "internalType": "bytes32",
          "name": "_hashedSecret",
          "type": "bytes32"
        }
      ],
      "name": "refund",
      "outputs": [],
      "stateMutability": "nonpayable",
      "type": "function"
    },
    {
      "inputs": [
        {
          "internalType": "bytes32",
          "name": "",
          "type": "bytes32"
        }
      ],
      "name": "swapMap",
      "outputs": [
        {
          "internalType": "address payable",
          "name": "initiator",
          "type": "address"
        },
        {
          "internalType": "uint64",
          "name": "endTimeStamp",
          "type": "uint64"
        },
        {
          "internalType": "address payable",
          "name": "recipient",
          "type": "address"
        },
        {
          "internalType": "uint256",
          "name": "value",
          "type": "uint256"
        },
        {
          "internalType": "uint256",
          "name": "expectedAmount",
          "type": "uint256"
        }
      ],
      "stateMutability": "view",
      "type": "function"
    }
  ]
}